:020000040800F2
:100000001029002049010008DB290008C127000849
:10001000D9290008A50700081346000800000000C1
:10002000000000000000000000000000212E000879
:10003000490A000800000000E92C0008232E0008EF
:100040006301000863010008630100086301000800
:1000500063010008630100086301000863010008F0
:1000600063010008630100086301000863010008E0
:1000700063010008630100086301000863010008D0
:1000800063010008630100086301000863010008C0
:100090009D45000863010008630100086301000832
:1000A00063010008630100086301000863010008A0
:1000B0006301000863010008630100086301000890
:1000C0006301000863010008630100086301000880
:1000D0006301000863010008630100086301000870
:1000E0006301000863010008630100086301000860
:1000F0006301000863010008630100086301000850
:10010000630100086301000863010008630100083F
:10011000630100086301000863010008630100082F
:10012000630100086301000863010008630100081F
:10013000DFF810D000F054FA00480047015A0008D8
:10014000AFF300801029002006488047064800478A
:10015000FEE7FEE7FEE7FEE7FEE7FEE7FEE7FEE777
:10016000FEE7FEE7A52E000831010008202A04DB87
:10017000203A21FA02F00021704721FA02F3D04020
:10018000C2F12002914008431946704740EA01033A
:100190009B0703D009E008C9121F08C0042AFAD23D
:1001A00003E011F8013B00F8013B521EF9D2704701
:1001B000D2B201E000F8012B491EFBD270470022A9
:1001C000F6E710B513460A4604461946FFF7F0FF56
:1001D000204610BD421C10F8011B0029FBD1801ADB
:1001E000704730B50B46014600202022012409E06B
:1001F00021FA02F59D4205D303FA02F5491B04FAE0
:1002000002F52844151EA2F10102F1DC30BD2DE9F2
:10021000F05F0546002092469B468846064681468A
:1002200040241BE02846414647462246FFF79EFFF2
:1002300053465A46C01A914110D3114618462246D9
:1002400000F0E0F92D1A67EB01084F462246012025
:10025000002100F0D7F917EB00094E41201EA4F150
:100260000104DFDC484631462A464346BDE8F09F9C
:100270002DE9FE4F804681EA0300C00F0C46009036
:1002800021F0004123F00045B8EB0200A94105D25E
:100290004046214690461C460B46024623F000404D
:1002A000104347D0270DC7F30A00C3F30A51029049
:1002B000401A019040286BDAC3F3130040F4801B0E
:1002C0000098924620B10023D2EB030A63EB0B0B9C
:1002D00001985946C0F14002504600F093F9064695
:1002E0000D4650465946019A00F09BF910EB080064
:1002F0006141002487EA115284EAE7731A4340D02F
:10030000009A62B3019A012A4FEA075215DC001BDA
:1003100061EB02014FF0004202EA0752CDE90042D0
:10032000001C41F5801132462B4600F09BF903B0CA
:10033000BDE8F08F40462146F9E7001B61EB020162
:10034000001C41F5801300185B412018A2F500172E
:1003500047EB030140EAD570B6196D4111E06D0815
:100360004FEA360645EAC0754FEA0752001B61EBBB
:100370000201001C41F5801149084FEA30000019C4
:10038000514132462B4603B0BDE8F04F00F05BB957
:100390000098012240000023D0EB020263EBE073DF
:1003A000009821464FEAE074B8EB000061EB0401CD
:1003B000E9E783F000435BE781F0004158E72DE96E
:1003C000FE4F81EA030404F0004421F00041009450
:1003D0004FF0000B23F0004350EA01045ED052EAD4
:1003E00003045BD0C3F30A54C1F30A552C44A4F2AE
:1003F000F3340194A0FB0254C1F3130141F48011C2
:10040000C3F3130343F4801301FB024400FB034EC8
:10041000840A970A44EA815447EA8357A4FB076891
:1004200002958D0A05FB07854FEA932C04FB0C54BB
:100430002705029D4FEA065847EA1637B5EB08052F
:100440006EEB070C870E920E47EA811742EA831281
:10045000A7FB0201B6EB0B0164EB00042B0D43EA92
:100460000C335E1844EB1C50DA465146E7FB0201A0
:10047000C5F313044FEA0B3343EA14534FEA043233
:10048000019C43EA0603A4F10C040294009CCDE90C
:1004900000B400F0E7F803B0BDE8F08F002001469B
:1004A000F9E72DE9F04D81EA030404F0004B21F057
:1004B000004514464FF0000A23F0004150EA0502BF
:1004C00020D054EA01021DD0C5F30A570246C5F3F5
:1004D0001303C1F31300C1F30A5640F4801543F42B
:1004E0008013A7EB0608101BD64608F2FD3873EB05
:1004F000050002D308F1010801E092185B41B8F150
:10050000000F03DA00200146BDE8F08D00204FF413
:100510008011064684460EE0171B73EB050705D3D2
:10052000121B63EB050306434CEA010C49084FEA32
:10053000300092185B4150EA0107EDD152EA030006
:1005400012D082EA040083EA0501084305D0101B9B
:10055000AB4106D20122002306E000224FF0004307
:1005600002E06FF0010253101AEB06004CEB085149
:1005700010EB0A0041EB0B01BDE8F04D00F063B851
:10058000C1F30A52C1F3130140F2FF3341F4801169
:100590009A4202DA00200146704740F233439A4201
:1005A000A2F2334202DC5242FFF7E0BD00F02AB86B
:1005B00030B5041E71F1000404DB4FF000444042EA
:1005C00064EB0101141E73F1000405DB1C464FF0BF
:1005D0000043524263EB0403994208BF904230BD8E
:1005E000064C074D06E0E06840F0010394E8070080
:1005F00098471034AC42F6D3FFF79EFDB86D000863
:10060000D86D0008202A04DB203A00FA02F100200D
:1006100070479140C2F1200320FA03F31943904040
:100620007047202A06DBCB17203A41FA02F043EA52
:10063000E07306E041FA02F3D040C2F1200291409B
:1006400008431946704710B5141E73F1000408DA08
:10065000401C41F1000192185B411A4301D120F086
:10066000010010BD2DE9F04D92469B4611B1B1FA43
:1006700081F202E0B0FA80F220329046FFF7C2FF2A
:1006800004460F4640EA0A0041EA0B0153465A4627
:10069000084313D0114653EA010019D0C8F14002B3
:1006A0005046FFF763FD05460E4650465946424602
:1006B000FFF7A8FF084305D0012004E02046394693
:1006C000BDE8F08D0020054346EAE0762C43374331
:1006D0000A986305E40AA0EB08000022FD0A44EA38
:1006E00047540A3002D500200146E9E701051019F8
:1006F0006941DDE9084500196941BDE8F04DA2E70F
:1007000070B58C1810F8015B15F0070301D110F8D3
:10071000013B2A1106D110F8012B03E010F8016B00
:1007200001F8016B5B1EF9D12B0705D40023521E83
:100730000DD401F8013BFAE710F8013BCB1A921CEB
:1007400003E013F8015B01F8015B521EF9D5A142E9
:10075000D8D3002070BD000070B5044600688168E1
:10076000C943C9071CD1816821F00101816000F0F3
:10077000F5FB05460FE000BF00F0F0FB401B022830
:1007800009D9A06A40F01000A062E06A40F00100C0
:10079000E062012070BD20688068C043C007EBD0D4
:1007A000002070BDFEE70020704700207047000069
:1007B00010B500220449054802F0DEFC0449034854
:1007C00002F0D4FC002010BD141100205C030020B6
:1007D0002C0D002010B50146034802F0C7FC02486A
:1007E00002F0A8FC002010BD5C030020094A10B5EF
:1007F000D2F8B822D2F814220AB1012010BD0A465C
:100800000146044802F0B8FCBDE81040014802F07F
:1008100011BD00005C03002010B504F0AFFF0146DD
:1008200003A002F040FB0F490120087010BD00003A
:1008300049502041545249425549444F205649415C
:100840002044484350212054454D504F20444543B7
:100850004F525249444F3A202564207365630D0A74
:10086000000000007400002001A002F01CBB00008A
:1008700043414C4C4241434B20495020454D20437D
:100880004F4E464C49544F210D0A00002DE9F843C4
:100890000F46804600254FF4106606221F49304659
:1008A000009503F0F7FE1D4C20786178E27808434C
:1008B000A1781143084321790843617908430CD199
:1008C000257008206070DC20A070E57025716571CE
:1008D00006222146304603F047FF104E1049403EA5
:1008E00086F80280F763E078421821798B186279E4
:1008F0004840134450401844B063042269464FF402
:10090000706003F031FF04226946900103F02CFF70
:1009100005F0E2FB3570BDE8F883000030020020EE
:10092000785634122DE9F041464C2078062822D022
:10093000A0784FF4427101EB401003F07FFE2228B3
:1009400005D0002344220221A07805F0D1FF012523
:1009500005F014F9C2B23B4894F90030C01D0026DE
:100960000127011F4FF00308052B2FD2DFE803F00A
:10097000060D1C304A000520BDE8F0810670467067
:100980008670C67005F0C0FC5AE0022A1BD1E16BEC
:100990000A7C02704A7C42708A7C8270C97CC17079
:1009A00005F09EFD02202BE0052A0AD104F09EFBF3
:1009B00008B1606A3CE005F08FFBE06A8047267072
:1009C00004E0062A3AD004F0C5FB05462846D3E7E2
:1009D000A2690425531CF9D0E369B3EB520FF5D992
:1009E00002780A7042784A7082788A70C078C8703B
:1009F000A06B401CA06305F073FD05F06DFB0420A7
:100A00002070E3E70425052ADBD166700A780378B5
:100A10009A420BD14A7843789A4207D18A788378F0
:100A20009A4203D1C978C078814202D0A06A0325D6
:100A3000804705F051FB84F80080C7E705F04CFBC8
:100A40002770C3E7F00100207047000010B54FF495
:100A50007A74204600F066F90FA002F024FA2046CE
:100A600000F060F90DA002F01EFA204600F05AF9DD
:100A70000BA002F018FA204600F054F909A002F089
:100A800012FA204600F04EF907A002F00CFABDE879
:100A90001040642000F046B9310A0000320A00001C
:100AA000330A0000340A000035200A0072B6FEE75F
:100AB000F8B50024009490F824202546012A12D08D
:100AC000012280F824204A681F23072A0DD20668D5
:100AD000776B521E02EB820293409F430B68934058
:100AE0001F43776319E00220F8BD06680D2A0AD279
:100AF000376BD21F02EB820293409F430B689340F7
:100B00001F43376309E0F76A0D3A02EB8202934014
:100B10009F430B6893401F43F7620A6807230668E8
:100B20000A2A0AD3F7680A3A02EB420293409F432B
:100B30008B6893401F43F76008E0376902EB42027D
:100B400093409F438B6893401F4337610A68102A84
:100B500001D0112A20D1124B02689A4217D1936812
:100B60001B0219D4936843F40003936009681029A9
:100B700012D10C490C4A0968B1FBF2F101EB810179
:100B8000490000E0491E00910029FBD104E0816A80
:100B900041F020018162012480F824502046F8BDF4
:100BA000002401409400002040420F002DE9F04154
:100BB00004004FF000057FD0A06A002628B9E66245
:100BC00084F82460204600F081F82046FFF7C4FD39
:100BD000A16AC90600D420B1A06A40F01000A0624A
:100BE0006AE0A16A21F4885141F00201A16233490F
:100BF00023688B42E16904D1B1F5402F01D14FF454
:100C00000021277B4FF4807C41EA470261680A4358
:100C1000A168614508D0012906D0002194F814E0AC
:100C2000BEF1010F02D00AE06146F7E7C7B1A76A3B
:100C300047F02007A762E76A47F00107E7625F68AD
:100C400027F469470F435F60236899681C4F394058
:100C500011439960A16861450BD0012909D00CE0CE
:100C6000DFF860E0A7690EEB47370F4347F40061F8
:100C7000E5E7218A0D05A5F580152168CB6A23F4E7
:100C800070032B43CB62216889680F4B1940914256
:100C900008D1E662A16A21F0020141F00101A162DE
:100CA000BDE8F081A06A20F0020040F01000A062D0
:100CB000E06A40F00100E0620120F1E7003C014001
:100CC000FDF7E1FF00E0FFFFFE0E1FFF00B585B05E
:100CD0000021009101910291039100680E49884220
:100CE00017D10E48816941F400718161816901F475
:100CF00000710491816941F0040181618069694654
:100D000000F004000490032000900190044800F0DB
:100D10001BF805B000BD0000002401400010024097
:100D20000008014070B5044600F018F90546601C43
:100D300002D004480078044400F010F9401BA0429F
:100D4000FAD370BD880000202DE9F84FDFF8C89174
:100D5000002409F1040A0AF1040B23460F270BF1C2
:100D6000040ED1E00125A54006EA0502AA4276D18B
:100D7000DFF8A8C14E68A6EB0C0866452BD00DDC49
:100D8000032E34D005DC36B3012E19D0022E2FD11C
:100D90001BE0112E16D0122E2AD119E0B8F5881FAB
:100DA00019D006DCB8F5803F15D0B8F5801F1FD1EB
:100DB00011E0B8F5001F0ED0B8F5041F18D10AE0F5
:100DC000CB6815E0CB681B1D12E0CB6808330FE041
:100DD000CB680C330CE08B682BB1012B4FF0080370
:100DE00003D0456104E0042302E0056100E0002334
:100DF000FF2A01D8064601E000F104064FEA840507
:100E000001D9A5F12005D6F8008007FA05FC28EAEB
:100E10000C0803FA05F548EA0508C6F800804D6895
:100E2000ED0070D53E4DAE6946F00106AE61AD698C
:100E300024F0030605F0010500953A4D06EB050C7C
:100E4000DCF80850A607360F07FA06F825EA080569
:100E5000DFF8D480404503D14FF0000825E052E090
:100E6000DFF8C880404502D14FF001081DE0DFF8EF
:100E7000C080404502D14FF0020816E0DFF8B48090
:100E8000404502D14FF003080FE0DFF8AC80404549
:100E900002D14FF0040808E0DFF8A080404502D1FD
:100EA0004FF0050801E04FF0060808FA06F848EA96
:100EB0000508CCF808804D68D9F80060ED034D4670
:100EC00001D5164300E096432E604D68DAF80060C5
:100ED000AD03554601D5164300E096432E604D689C
:100EE000DBF80060ED025D4601D5164300E0964355
:100EF0002E604D68DEF80060AD02754601D51643E0
:100F000000E096432E60641C0A681646E2407FF4B7
:100F100029AFBDE8F88F0000000401400000111067
:100F2000001002400000014000080140000C014098
:100F3000001001400014014000180140001C014055
:100F4000C26821EA02030A4043EA02410161704794
:100F50000AB1016170470904FBE70000014880689D
:100F6000704700008800002070B5040025D094F878
:100F70003D00002520B984F83C50204600F0B8F828
:100F8000242084F83D002068016821F001010160FF
:100F90002068016841F4004101602068016821F483
:100FA0000041016000F0C6FE4D4A6168914201D8DF
:100FB0004C4900E04C49884201D2012070BD4B49A8
:100FC0002368B0FBF1F15E6826F03F060E435E60D9
:100FD0006368934206D94FF4967359434FF47A737A
:100FE000B1FBF3F12368491C1E6A26F03F0631432A
:100FF00019626168914210D84900401EB0FBF1F2BD
:10100000521CC2F30B02042A01D2042022E0B0FBDE
:10101000F1F0401CC0F30B001CE0A268F2B301EB3E
:10102000C10303EB0116431EB3FBF6F35B1C43F451
:1010300080431B0549D092B301EBC10202EB0111C1
:10104000401EB0FBF1F0401CC0F30B0040F48040A8
:1010500040F400402168CA694CF6FF739A4310437C
:10106000C861D4E9071001432068026822F0C00279
:1010700011430160D4E9030101432068826848F20A
:10108000FF339A4311438160D4E905010843216885
:10109000CA6822F0FF021043C86001E00EE016E0CB
:1010A0002068016841F0010101602564202084F876
:1010B0003D00256384F83E50002070BD01EB4106E1
:1010C000431EB3FBF6F35B1CB3E70120C2E701EB61
:1010D0004101401EB0FBF1F0401CC0F30B00B7E72C
:1010E000A086010080841E0000093D0040420F00E0
:1010F00010B586B000210091019102910391006822
:101100001349884222D1134CA06940F00800A06125
:10111000A069694600F0080004904FF44070009008
:1011200012200190032003900B48FFF70DFE0B489F
:10113000416841F0E06141F002014160E06940F442
:101140000010E061E06900F40010049006B010BDEA
:101150000054004000100240000C0140000001401B
:10116000024881680278114481607047880000203D
:10117000074810B5016841F010010160032000F03C
:1011800075F8002000F006F800F024F8002010BDEB
:101190000020024070B50D4D04464FF47A71287856
:1011A000B1FBF0F00A490968B1FBF0F001F08BFAED
:1011B00048B9102C07D200222146501E00F036F804
:1011C00000206C6070BD012070BD00008800002010
:1011D000940000200C4808B5816941F0010181614B
:1011E000816901F001010091C16941F08051C16143
:1011F000C06900F0805000900448416821F0E0612F
:1012000041F00071416008BD001002400000014043
:10121000002809DB00F01F020121914040098000F5
:1012200000F1E020C0F8001170470000F0B40E4B50
:101230001B680C46C3F30223C3F10705042D00D934
:101240000425191D072901D2002300E0DB1E012619
:1012500006FA05F1491E214099409E40761E16402F
:101260003143F0BC03F0D2BA0CED00E0064900F0C7
:10127000070208684FF6FF03184040EA0220034ABD
:1012800010430860704700000CED00E00000FA0514
:1012900010B50C0607D501F0070101EB810100EB49
:1012A000C100283005E001EB810100EBC10000F531
:1012B000B47099B232B1012202730181190C4181DB
:1012C000002010BD00220273C180F9E7704701EBD6
:1012D000810200EBC202D0F8E802D26B02F059B9E9
:1012E00001EB810200EBC202D0F8E802D2F87C21C7
:1012F00002F0B2B970B504460B0601F0070000EB2E
:10130000800104EBC1014FF001024FF0000503D54D
:1013100081F82920283103E081F8695101F5B47181
:10132000087094F8A802012808D084F8A822206840
:1013300002F0D2FD84F8A852002070BD022070BDDA
:1013400070B5044601F00F006268904201D9012097
:1013500070BD0B0601F0070000EB800104EBC1013A
:101360004FF001024FF0000503D581F82920283104
:1013700003E081F8695101F5B4718D70087094F83B
:10138000A802012808D084F8A822206802F041FEB3
:1013900084F8A852002070BD022070BD2DE9F05FD6
:1013A00004685FEA424C0B788D69B4F850C04FF086
:1013B00000064BF68F7948F2800A48F68F7B48F298
:1013C000C00E4FF480672AD54FF0020808EBC3081F
:1013D000C44407EB4C07E45BC4F30904A54203D300
:1013E0002D1B8D6101D00BE08E61066836F823500D
:1013F00005EA090585F4005545EA0A0526F8235053
:10140000520609D50D78036833F8252002EA0B024D
:1014100042EA0E0223F8252084B30A8929E04FF01E
:10142000060808EBC308C44407EB4C07E45BC4F3AD
:101430000904A54203D32D1B8D6101D00BE08E6101
:10144000066836F8235005EA090585F4005545EA93
:101450000A0526F82350520609D40B78056835F89A
:10146000232002EA0B0242EA0E0225F823202CB1C7
:101470004A8949690068234603F09AF82046BDE886
:10148000F09F2DE9F05F05460C4600685FEA426C6C
:1014900016462278A369B0F850C04FF0000148F614
:1014A0008F774CF280094FF6FF7B4FF4004E4FF4DC
:1014B000806A6CD54FF0020808EBC208E0440AEBE2
:1014C000480C30F80C00C0F30900834211D91B1AF4
:1014D000A3610FD0730407D52E6836F822303B4045
:1014E00043EA090326F8223094F82420012A08D080
:1014F000C6E0A16111462846FFF7E9FE70046CD4EE
:10150000BEE0626902446261E2690244E261236909
:10151000226A9A4202D31846111A03E084F8241072
:101520000AB110462162617811B1012923D02BE064
:101530002968B1F850201144227801EB021101F220
:10154000044148B13E280FD84208C30700D0521CBE
:101550000BEA82220A8017E00A8822F4F8420A8005
:101560000A8842F40042F5E74209C30600D1521E40
:101570004EEA8222EEE72968B1F850201144227821
:1015800001EB0211A1F8040483B2228974E04FF048
:10159000060808EBC208E0440AEB480C30F80C00DF
:1015A000C0F30900834211D31B1AA3610FD0730447
:1015B00007D42E6836F822303B4043EA090326F868
:1015C000223094F82420012A11D059E0A16111465B
:1015D0002846FFF77CFE700452D42278296831F83F
:1015E0002200384040EA090021F8220048E0626900
:1015F00002446261E2690244E2612369226A9A421A
:1016000003D31846111A216204E00AB11046216280
:1016100084F824106278296812B1012A22D029E0C6
:10162000B1F850201144227801EB021101F20C4173
:1016300048B13E280FD84208C30700D0521C0BEA1D
:1016400082220A8016E00A8822F4F8420A800A8878
:1016500042F40042F5E74209C30600D1521E4EEAA9
:101660008222EEE7B1F850201144227801EB0211FA
:10167000A1F80C04628983B26169286802F0B6FFA0
:101680002278296831F8220048F6BF73184080F0AC
:10169000300048F28003184321F822000020BDE802
:1016A000F09F01F0070101EB810100EBC100D0F8D0
:1016B000840170472DE9F04104460F0601F0070050
:1016C00000EB800104EBC1014FF001064FF0000573
:1016D00003D581F82960283103E081F8695101F5CB
:1016E000B47108700A61CB704A7802B1C881022BCC
:1016F00000D10D7194F8A802012809D084F8A862DD
:10170000206802F0BBFA284684F8A852BDE8F081B0
:101710000220FBE770B50C4601F0070505EB8501DB
:1017200000EBC101C1E95F230022C1F8842181F8E7
:10173000692181F8685101F5B4716207006802F00F
:10174000BDFC002070BD70B504460D4601F00700D9
:101750006168884201D9012070BD29064FF000065A
:101760004FF0010207D500EB800104EBC10181F8C5
:101770002920283107E005EB850104EBC10181F840
:10178000696101F5B4718A70087094F8A8020128A3
:1017900007D084F8A822206802F077FC680702D0FE
:1017A00006E0022070BD04F52C71206802F02FFCC9
:1017B00084F8A862002070BD70B50C4601F00705E2
:1017C00005EB850100EBC101C1E90F23012281F87E
:1017D0004C208B6400234B6481F8292001F8285F9A
:1017E0006207006802F06AFC002070BD1FB5044665
:1017F000006802F0D9FE000402D5204601F0F6F898
:10180000206802F0D1FE40050CD5206830F8441F56
:1018100021F480610180204600F01EF9002120465D
:1018200000F035F9206802F0BFFE400405D52068BD
:1018300030F8441F21F480410180206802F0B4FE9A
:10184000800405D5206830F8441F21F40051018040
:10185000206802F0A9FEC00414D5206830F8401FAB
:1018600021F004010180206830F8401F21F00801B8
:101870000180204600F003F9206830F8441F21F46D
:1018800080510180206802F08FFE00053ED522685D
:101890000020694632F8203021F81030401CC0B2D8
:1018A0000828F7D332F8400F40F00100108020687C
:1018B00030F8402F22F0010202802068B0F8442066
:1018C0005205FBD530F8442F22F4806202800020BC
:1018D000236831F8102023F82020401CC0B20828CB
:1018E000F6D3206830F8401F41F0080101802068DD
:1018F00030F8441F21F400610180206830F8401F57
:1019000041F004010180204600F0F6F8206802F062
:101910004BFE800508D5206830F8441F21F4007183
:101920000180204600F0AFF8206802F03DFEC005BF
:1019300005D5206830F8441F21F4807101801FBD57
:101940002DE9F04186B0040004D094F8A9020025E6
:1019500020B108E0012006B0BDE8F08184F8A8526B
:10196000204600F05BF8032084F8A902206802F00A
:1019700047FB04F11001142288466846FEF706FC76
:1019800094E80F0002F0A6FA0226D0BB00212068DE
:1019900002F024FE002001270FE000BF00EB8001D1
:1019A00004EBC10181F8297001F8280FC881CD70BE
:1019B0000D614D61401CC0B28D6161688142EDD8FE
:1019C000002011E000EB800104EBC10181F86951B6
:1019D00081F8680181F86B51C1F87851C1F87C51E8
:1019E000401CC0B2C1F8805161688142EAD814221B
:1019F00041466846FEF7CAFB94E80F0002F0F7FA8A
:101A000010B184F8A962A5E784F8245084F8A9727B
:101A1000206802F0EAFA00209DE7000008B500689F
:101A20000B49884212D10B48C16941F40001C161E0
:101A3000C069002200F40000009011461420FFF756
:101A4000F5FBBDE808401420FFF7E2BB08BD00002D
:101A5000005C00400010024070B50446806801251B
:101A6000022801D0FFF722F82946D4F8E80201F055
:101A7000DCFED4F8E802BDE8704001F098BED0F872
:101A8000E80201F0BCBED0F8E80201F0C2BE10B519
:101A9000044690F8A80201280BD0012084F8A8027F
:101AA00084F82410206802F09BFD002084F8A8022E
:101AB00010BD022010BDD0F8E82200F52C711046B0
:101AC00001F0BFBE10B5044690F8A802012810D05E
:101AD000012084F8A802206802F057FD0121204669
:101AE000FFF7F4FB206802F07EFA002084F8A802D9
:101AF00010BD022010BD000010B50446D0F8E80269
:101B000001F0DEFEA069002804D00348016841F01E
:101B10000601016010BD000010ED00E02DE9F84362
:101B200005460078354CC00754D0E0690026C00057
:101B300008D4E06940F08050E061E069012600F0DF
:101B4000805000902E480168C90512D40168804673
:101B500041F480710160FFF701FA074605E000BF1C
:101B6000FFF7FCF9C01B642823D8D8F80000C00593
:101B7000F6D5206A10F4407021D0A98801F4407194
:101B800081421CD0206A1F49012220F440700A6063
:101B900000220A602062C00711D0FFF7DFF9074674
:101BA00041F2883808E000BFFFF7D8F9C11B414572
:101BB00002D90320BDE8F883206A8007F4D5206AA3
:101BC000696820F44070084320621EB1E06920F08B
:101BD0008050E0612878800705D56068A96820F406
:101BE0004040084360602878C00605D56068696990
:101BF00020F48000084360600020DBE70010024012
:101C000000700040400442422DE9F0470F460500B5
:101C100061D0434E306800F00700B84209D2306806
:101C200020F0070038433060306800F00700B84209
:101C300051D128683B4C810712D5400703D5606815
:101C400040F4E06060602878000703D5606840F4E5
:101C5000605060606068A96820F0F0000843606030
:101C60002878C00728D06868012810D02168022889
:101C700010D0890700292EDA616821F003010143A1
:101C80006160FFF76BF9804641F288390DE0216809
:101C90008903EFE78901EDE7FFF760F9A0EB0801A1
:101CA000494502D90320BDE8F0876068696800F003
:101CB0000C00B0EB810FEFD1306800F00700B842A4
:101CC0000BD9306820F0070038433060306800F0EE
:101CD0000700B84201D00120E5E72878400705D584
:101CE0006068E96820F4E0600843606028780007D5
:101CF00006D56068296920F4605040EAC100606040
:101D000000F038F86168084AC1F30311515CC8401B
:101D10000649086006480068FFF73CFA0020C2E761
:101D20000020024000100240536D00089400002083
:101D30008C0000200448054900684968044AC1F342
:101D40000221515CC84070479400002000100240FE
:101D5000636D00080448054900684968044AC1F3F6
:101D6000C221515CC840704794000020001002401E
:101D7000636D000812A185B00FC98DE80F0014A093
:101D8000144A006804905168134801F00C03042BB6
:101D900010D0082B0ED1C1F38343C9031DF80300F3
:101DA0000AD5516804AAC1F34041515C0A4A504324
:101DB000B0FBF1F005B0704708494843FAE700006E
:101DC00002030405060708090A0B0C0D0E0F10107C
:101DD000010200000010024000127A0000093D00DC
:101DE0002DE9F84F040070D02078C04DC00749D0CD
:101DF0006868C0F38100012807D06868C0F38100DB
:101E0000022809D16868C00306D52868800339D53F
:101E100060680028E7D035E06068B0F5803F0BD0FF
:101E200010B1B0F5A02F11D0286820F480302860C0
:101E3000286820F4802002E0286840F48030286080
:101E4000606890B1FFF78AF806460AE0286840F417
:101E500080202860F0E700BFFFF780F8801B64282F
:101E600073D828688003F7D50CE0FFF777F80646AB
:101E700005E000BFFFF772F8801B6428F0D82868DF
:101E80008003F7D420789A4E80074FF001094FF075
:101E9000000839D5686810F00C0F07D06868C0F3E7
:101EA0008100022809D16868C00306D42868800729
:101EB00014D52069012808D110E02069B0B1C6F816
:101EC0000090FFF74BF8074605E00AE1FFF746F8F8
:101ED000C01B0228C4D828688007F7D52868616924
:101EE00020F0F80040EAC10028600DE0C6F800804C
:101EF000FFF734F8074604E0FFF730F8C01B02286C
:101F000023D828688007F7D4207800072CD5794893
:101F1000A169D9B1C0F80090FFF720F8074604E0A6
:101F2000FFF71CF8C01B02280FD8686A8007F7D596
:101F300071484FF4FA510068B0FBF1F0009000BF17
:101F40000098411E0091FAD20EE080E0C0F80080B7
:101F5000FFF704F8074604E0FFF700F8C01B02286B
:101F600075D8686A8007F7D42078400760D5E8699B
:101F70000027C00008D4E86940F08050E861E869B3
:101F8000012700F0805000905C480168C90513D417
:101F90000168834641F480710160FEF7DFFF8246ED
:101FA00006E000BFFEF7DAFFA0EB0A0064284ED877
:101FB000DBF80000C005F5D5E06801280AD008B1BB
:101FC000052813D0286A20F001002862286A20F032
:101FD000040002E0286A40F001002862E06841F253
:101FE000883B98B1FEF7BAFF82460BE0286A40F0C2
:101FF00004002862EEE700BFFEF7B0FFA0EB0A0185
:1020000059455AD8286A8007F6D50CE0FEF7A6FF96
:10201000824605E0FEF7A2FFA0EB0A0159454CD825
:10202000286A8007F6D41FB1E86920F08050E86183
:10203000E06988B36968C1F38101022944D00228AC
:10204000C6F8608004D0FEF789FF044638E034E02B
:10205000FEF784FF074604E0FEF780FFC01B02285E
:102060002BD828688001F7D4206AB0F5803F05D1CD
:102070006868A16820F4003008436860D4E908016A
:102080000843696821F4741108436860C6F86090D9
:10209000FEF764FF044606E025E000BFFEF75EFFA2
:1020A000001B022809D828688001F7D51BE000BF73
:1020B000FEF754FF001B022802D90320BDE8F88F69
:1020C00028688001F4D40EE00128F7D06868226AFD
:1020D00000F48031914204D1616A00F470108842AA
:1020E00001D00120EAE70020E8E7000000100240EC
:1020F00000004242800442429400002000700040F0
:1021000070B5040009D0606A002540B125616561A1
:10211000A56294F8510040B10CE0012070BD6068E8
:10212000B0F5827FF4D0E561F2E784F850502046A4
:1021300000F040F8022084F851002068016821F086
:1021400040010160A088218900F4827001F40441FB
:102150000843A18901F400610843217C01F00201D8
:102160000843217D01F001010843218B01F4007136
:102170000843217F01F03801084394F8201001F052
:1021800080010843218D01F4005108432168086053
:10219000A069042101EA1040216848602068C169F3
:1021A00021F40061C1616565012084F851000020BF
:1021B00070BD000030B585B00024009401940294F5
:1021C000039400681449884223D11448816941F47A
:1021D00080518161816901F480510491816941F0EC
:1021E0000401816180690E4D00F004000490A0207C
:1021F0000090022001900320039069462846FEF7D4
:10220000A3FD4020CDE90004694628460294FEF76C
:102210009BFD05B030BD00000030014000100240C1
:10222000000801402DE9F84F044640680025984613
:1022300016460F464FF0040BB0F5827F01D1A0681F
:1022400088B194F85000012818D0012084F850007B
:10225000FEF784FE814694F851004FF0000A0128F1
:102260000ED0022582E084F851B013460A4620467B
:10227000CDF8008000F036F9BDE8F88F0220FBE7CA
:10228000002F72D0002E70D084F851B0C4F854A042
:10229000A763A687E687C4F830A0A4F834A0A4F802
:1022A00036A0C4F840A0C4F844A0A068B0F5004F20
:1022B00009D12068016821F04001016020680168AF
:1022C00021F48041016020680168490603D4016857
:1022D00041F040010160E068D8B139E020688168D0
:1022E000C90709D0007BA16B0870A06B401CA063DC
:1022F000E08F401EE0870CE0FEF730FEA0EB090106
:10230000414503D3B8F1FF3F03D036E0B8F1000FE9
:1023100033D0E08F0028E1D11DE020688168C90733
:1023200009D0C068A16B0880A06B801CA063E08FFF
:10233000401EE0870CE0FEF711FEA0EB09014145CD
:1023400003D3B8F1FF3F03D017E0B8F1000F14D06A
:10235000E08F0028E1D14A464146204600F0C5FC06
:1023600008B120206065606D00B10125012084F86E
:10237000510084F850A028467EE70325F6E72DE9B2
:10238000F84F044690F8500000271D46164689462F
:1023900001280DD04FF0010B84F850B0FEF7DEFDA0
:1023A000804694F85100BA46012804D0022793E0F1
:1023B0000220BDE8F88FB9F1000F73D0002E71D064
:1023C000032084F85100C4F854A0C4F83090A686C5
:1023D000E686C4F838A0A4F83CA0A4F83EA0C4F84F
:1023E00044A0C4F840A0A068B0F5004F09D120680F
:1023F000016821F0400101602068016841F48041DA
:10240000016020680168490603D4016841F0400179
:102410000160E068B0F5006F606803D030B3012E52
:1024200024D041E008B1012E1CD1206B2168008826
:10243000C86006E020688168890709D5216B098892
:10244000C160206B801C2063E08E401EE08609E0A6
:10245000FEF784FDA0EB0800A84202D3681C01D05F
:1024600031E07DB3E08E0028E4D120E0206B2168CC
:102470000078087306E020688168890709D5216B18
:1024800009780173206B401C2063E08E401EE086BB
:102490000AE0FEF763FDA0EB0800A84203D3681C26
:1024A00002D010E017E06DB1E08E0028E3D1424683
:1024B0002946204600F047FC08B120206065A0684E
:1024C00018B106E0FFE7032706E02068C1688068CE
:1024D0000090606D00B1012784F851B084F850A0DD
:1024E000384666E72DE9F84F044690F8500000277B
:1024F0000A9E1D4692468B464FF0010901280ED0D8
:10250000012084F85000FEF729FD804694F8510020
:10251000616801280CD0B1F5827F07D102E002206A
:10252000BDE8F88FA16809B9042801D00227C2E0EC
:10253000BBF1000F27D0BAF1000F24D01DB394F8DF
:102540005100042802D0052084F851000020606565
:10255000C4F838A0E587A587C4F830B0E586A5861D
:102560002064606420680168490603D4016841F072
:1025700040010160E068B0F5006F606805D0E8B325
:10258000012D46D07FE0012795E008B1012D39D11A
:10259000206B21680088C860206B801C2063E08E5F
:1025A000401EE0862EE02068816889070FD5E18E05
:1025B00069B1B9F1010F0AD1216B0988C160206BA3
:1025C000801C2063E08E401EE0864FF000092068EA
:1025D0008168C9070CD0E18F51B1C068A16B088038
:1025E000A06B801CA063E08F401EE0874FF00109C4
:1025F000FEF7B4FCA0EB0800B04200E009E001D314
:10260000701C50D1E08E0028CDD1E08F0028CAD1B7
:102610003FE0206B216800780873206B401C20632A
:10262000E08E401EE0862EE02068816889070FD585
:10263000E18E69B1B9F1010F0AD1216B09780173FB
:10264000206B401C2063E08E401EE0864FF00009A6
:1026500020688168C9070CD0E18F51B1C068A16BB7
:102660000870A06B401CA063E08F401EE0874FF015
:102670000109FEF773FCA0EB0800B04202D3701C06
:1026800001D010E07EB1E08E0028CDD1E08F00288F
:10269000CAD142463146204600F055FB28B10127F9
:1026A0002020606507E0032705E0A06818B92068CE
:1026B000C16880680090012084F85100002084F8EF
:1026C000500038462CE710B5401EB0F1807F01D392
:1026D000012010BD4FF0E02460610F21601702F06F
:1026E00095F80020A06107202061002010BD70B582
:1026F000040004D094F83900002510B106E0012050
:1027000070BD84F83850204600F022F8242084F868
:1027100039002068C16821F40051C160204600F0F2
:10272000DDFB2068016921F4904101612068416965
:1027300021F02A0141612068C16841F40051C16063
:10274000E563202084F8390084F83A00002070BD49
:1027500030B585B00024009401940294039400687D
:102760001449884224D11448C16941F48021C161CF
:10277000C16901F480210491816941F008018161FE
:1027800080690E4D00F0080004904FF480600090C6
:10279000022001900320039069462846FEF7D4FAF0
:1027A000E814CDE90004694628460294FEF7CCFA05
:1027B00005B030BD0048004000100240000C014050
:1027C000FEE70000F0B500230A24302537261F4617
:1027D00011E000BFB4EB107F02D905EB107C01E0E3
:1027E00006EB107C01F813C001EB430C00015B1CED
:1027F0008CF80170DBB29342ECD3F0BD3EB50024FF
:1028000010480094019402940D498460016004739F
:102810000475012505614FF460214460C161FEF734
:10282000C5F908B172B6FEE7CDE90045694605482D
:102830000294FEF73DF9002801D072B6FEE73EBDD6
:1028400000240140400200202DE9F04786B000241A
:1028500036480094019402940394816941F0100178
:102860008161816901F010010491816941F02001C9
:102870008161816901F020010491816941F00401C5
:102880008161816901F004010491816941F00801CD
:1028900081618069DFF8988000F0080041F2FF351F
:1028A0000490002229464046FEF752FBDFF8849050
:1028B000002210214846FEF74BFBDFF87CA04FF4C6
:1028C0000047002239465046FEF742FB009502269B
:1028D00001250396CDE9015469464046FEF734FAD6
:1028E0000C2000901548CDE9010469464846FEF7E2
:1028F0002BFA1020CDE90005CDE90256694648467D
:10290000FEF722FA41F2FB00CDE900046946504689
:102910000294FEF719FA00970396CDE9015469462F
:102920005046FEF711FA06B0BDE8F08700100240ED
:102930000010014000080140000C0140000011108F
:102940000F4810B50D4901604FF4827141600021BC
:102950008160C1604FF400720161C0E9051220225C
:10296000C0E90721416281620A21C162FFF7C8FB09
:10297000002801D072B6FEE710BD00000030014013
:10298000C402002010B500220F49104800F0DAFD03
:1029900008B1FEF78BF80E490C4800F0B7FF08B1FC
:1029A000FEF784F80B49094800F0D8FB08B1FEF7A0
:1029B0007DF8064801F000F8002803D0BDE810407B
:1029C000FEF774B810BD00000C0000205C0300206E
:1029D000740100205C000020FEE7FEE700F00F001D
:1029E000092801D830307047373070472DE9F84F4B
:1029F000044640F68F7B48F60F7A4FF002094FF4F9
:102A0000806868E1B0F8441011F00F0638D030F853
:102A1000267039047ED530F8261001EA0B0141F00A
:102A2000800120F8261006EB860004EBC00595F81F
:102A3000740105F5B47500286DD0E87802286BD0D4
:102A40002A78216831F8220048F68F73184048F23E
:102A5000C003184321F822002978206830F821208B
:102A6000B0F8503052047DD509EBC1015A1808EB7B
:102A70004201415A8905890D009174D02A89D2E01A
:102A8000C9062DD4018801EA0A0141F40041018000
:102A9000206804F12805B0F850302A7809EBC2010B
:102AA0005A1808EB4201405AC0F309006064E16B18
:102AB0000844E06300212046FEF709FC94F8240056
:102AC00000289ED0A86900289BD194F8240040F0EB
:102AD00080012068A0F84C10002084F82400FAE05F
:102AE000018804F5B4750A0521D5B0F850302A786C
:102AF000062101EBC2015A1808EB4201405A04F5C5
:102B00002C71C0F30903EB61EA88206801F050FDE5
:102B1000216802E0A2E062E072E0088800EA0B00AF
:102B200040F0800008802046FEF7C5FFD3E009048E
:102B3000D5D5018801EA0B0141F0800101802068B0
:102B4000B0F850202B78062101EBC3010A4408EBB2
:102B50004201405A83059B0DEB6110D0696971B148
:102B6000EA8801E053E051E0206801F021FDE969C5
:102B700068690844686100212046FEF7B1FB2068BF
:102B8000B0F850100844296900F20C4051B13E29B8
:102B900010D84A08C90700D0521C4FF6FF7101EA4D
:102BA00082210FE0018821F4F8410180018841F47D
:102BB000004107E04A09C90600D1521E4FF4004106
:102BC00041EA82210180206801884BF68F72114012
:102BD00081F4405148F28002114301807BE020687B
:102BE000B0F850102A78062303EBC2020A4408EB1F
:102BF0004201415A8905890D009118D0EA8812E0F6
:102C00003A4629462046FEF7C9FB00900FE006220F
:102C100002EBC1015A1808EB4201415A8905890D9E
:102C2000009104D06A896969009B01F0C1FCE969DF
:102C300000980844E8616969009808446861A869D7
:102C400018B129690098814204D929782046FEF7F5
:102C500047FB03E02946206801F030FA38063AD5F0
:102C6000226806EB860004EBC00132F8260000EA79
:102C70000A0040F4004022F8260091F82B00283189
:102C8000022801D1F80522D42268B2F850300D781C
:102C900009EBC500034408EB4300105A8A69C0F3EE
:102CA000090082420CD9121A8A610BD04A69024487
:102CB0004A61CA691044C861206801F0FFF90AE05E
:102CC00000208861E9B22046FEF701FB03E03A46A6
:102CD0002046FEF7D6FB2068B0F8441009043FF503
:102CE00091AE0020BDE8F88F7047F8B50446406803
:102CF0004FF48273984217D1A0684FF48065B0F505
:102D0000004F01D0A8420FD12068066826F0400687
:102D100006606068984207D1A068A84204D100927A
:102D20000B460022012103E000920B460022802185
:102D3000204600F019F8002804D0606D40F0200013
:102D400060650320F8BD38B50B46009204460022AA
:102D5000802100F009F8002804D0606D40F02000C8
:102D60006065032038BD00002DE9F8431E469146FA
:102D700088460446089DFEF7F1F8401B351AFEF719
:102D8000EDF8074625480068C0F3CB30684338E0CB
:102D9000701C37D0FEF7E2F8C01BA84203D215B171
:102DA000009860B32CE02068416821F0E0014160A8
:102DB0006068B0F5827F0BD1A068B0F5004F02D0FB
:102DC000B0F5806F04D12068016821F040010160F6
:102DD000A06AB0F5005F09D12068016821F40051B4
:102DE00001602068016841F400510160012084F80D
:102DF0005100002084F850000320BDE8F88300252E
:102E0000401E00902068816838EA010004D000214B
:102E10004945BDD10020F0E70121F9E794000020E9
:102E20007047FEF79DB930B595B028216846FDF78B
:102E3000C6F914210AA8FDF7C2F918210FA8FDF759
:102E4000BEF901210804CDE90010002402940225F6
:102E50000491CDE907504FF4E01009906846FEF761
:102E6000BFFF08B172B6FEE70F20CDE90A054FF4A7
:102E70008060CDE90C4002210AA80E94FEF7C4FE42
:102E800008B172B6FEE712200F904FF40040119087
:102E900014940FA8FEF742FE002801D072B6FEE798
:102EA00015B030BD70470FB4C82000B5C1B0FDF7F4
:102EB00039FF43AB4FF480716846429A01F08CFCB5
:102EC0006846FDF787F981B26846FDF78FFCC82098
:102ED000FDF728FF41B05DF814FB000070B5044613
:102EE00000680169E26821F44051114301612169E0
:102EF000A0680843616908432168CA6841F20C630D
:102F00009A430243CA6020684169A26921F4407172
:102F1000114341611E492068884202D1FEF71AFF21
:102F200001E0FEF707FF00EBC00101EB0012606853
:102F300064218000B2FBF0F3B3FBF1F36FF01806ED
:102F40007343B2FBF0F5B2FBF0F605EB83053223D9
:102F500003EB0515B5FBF1F5B6FBF1F605F0F00551
:102F600005EB0615B2FBF0F6B2FBF0F0B0FBF1F0AA
:102F70006FF01802504306EB800003EB0010B0FB2B
:102F8000F1F0216800F00F002844886070BD000057
:102F9000003801402DE9F041D0F8C032D0F8B82215
:102FA000CAB101EB810500EB85040026E7693FB15A
:102FB00003EBC5039B6BB7FBF3F503FB157323B161
:102FC000C2F814620020BDE8F08100231A46E661D1
:102FD00000F07FFCF6E70220F5E770B50546D0F873
:102FE000B84200F07AFBC4F80C02D5F8B80248B138
:102FF000D5F8BC12D4F80402CA6804F503719047EE
:10300000002070BD022070BD70B5044600268121ED
:1030100000F0B6FA002501212046E56200F0B0FA82
:1030200082212046C4F86C5100F0AAFA2564D4F835
:10303000B80248B1D4F8BC0204F52E744068804749
:10304000206800F016FE2560304670BD10B5D0E94E
:10305000AE4159B194F80002FF2807D08B6894F86C
:10306000012221469847FF2084F80002002010BD6D
:103070000A210180004870479C0000204321018004
:1030800000487047EC000020432101800048704751
:10309000A800002043210180004870473001002033
:1030A0002DE9F04104460026007C4FF4007701250D
:1030B00090B3402302228121204600F063FB40238D
:1030C000E56202220121204600F05CFB0823032276
:1030D00082212046C4F86C5100F054FB4FF4077075
:1030E000256400F0C7FDC4F8B802F8B10546D4F86D
:1030F000BC02006880470020C5F81402C5F8180219
:10310000207CD5F8042298B140230121204600F00C
:1031100045FB3046BDE8F081FFE73B4602228121B6
:10312000204600F02FFB3B46E562CAE70126F0E7A8
:103130003B46EAE710B5D0F8B81269B1027C002A24
:10314000D1F8042205D04023012100F027FB002004
:1031500010BD4FF40073F7E7022010BD02460220B5
:10316000002902D00020C2F8BC127047D0F8B80283
:10317000C0F8041200207047D0F8B802C0F810223E
:10318000C0F80812002070472DE9FC410546D0F830
:10319000B87200208DF80000ADF8040006460878EB
:1031A0000C4610F0600121D020293BD1E288AAB161
:1031B0000006607807D5D5F8BC128B683946984769
:1031C000E288394626E087F80002A07987F80102F4
:1031D000E2883946284600F06AF828E0D5F8BC12A3
:1031E000607800228B682146984720E0607820B103
:1031F0000A2809D00B2815D110E095F89C02032865
:1032000010D1022201A905E095F89C02032809D1FA
:1032100001226946284600F064F808E095F89C020F
:10322000032804D02146284600F036F8022630460E
:10323000BDE8FC8110B5D0F8B812A1B1D1F81422C4
:103240000AB1012010BD0122C1F81422D1F81022C8
:103250000263B1F8102293B2D1F80822812100F064
:1032600038FB002010BD022010BD10B5D0F8B422EC
:1032700052689047002010BD134610B50A46002141
:1032800000F08CFA002010BD134610B50A4600214C
:1032900000F01FFB002010BD10B50446802100F097
:1032A000FDFA2046BDE81040002100F0F7BA10B545
:1032B0000323C0F85C21C0F89432C0F860211346A3
:1032C0000A46002100F06AFA002010BD10B5052161
:1032D0000023C0F894121A46194600F05FFA002045
:1032E00010BD10B50223C261C0F8943202621346C9
:1032F0000A46002100F0EDFA002010BD10B50421AF
:103300000023C0F894121A46194600F0E2FA002091
:1033100010BD000010B50A46024903A000F0E2F813
:10332000004810BD2C0B002043444320436F6E66C1
:103330006967000012200880004870472C000020B8
:1033400010B50A46024903A000F0CCF8004810BDB1
:103350002C0B002043444320496E74657266616300
:103360006500000004200880004870472800002005
:1033700010B50A46024903A000F0B4F8004810BD99
:103380002C0B002053544D6963726F656C65637438
:10339000726F6E696373000010B50A46024903A09C
:1033A00000F0A0F8004810BD2C0B002053544D3302
:1033B00032205669727475616C20436F6D506F7264
:1033C0007400000010B51A2008800A480168001D2A
:1033D0000468001D0068081809D008220649FFF794
:1033E000F1F90549042210312046FFF7EBF90248B4
:1033F000801E10BDE8F7FF1F42000020F8B504460C
:103400000020ADF8000048880D46010A082948D27E
:10341000DFE801F04704091747473C45D4F8B012EC
:10342000207C0A6819E0207C02260028D4F8B40227
:1034300005D0C16A68468847014646703EE0816A09
:10344000F8E7C0B206282CD2DFE800F0030A101417
:10345000181CD4F8B002426805E0694690471CE0A9
:10346000D4F8B0028268E2B1207CF6E7D4F8B0026A
:10347000C268F8E7D4F8B0020269F4E7D4F8B00201
:103480004269F0E7D4F8B0028269ECE7207C40B9E9
:10349000D4F8B402416B6846884701460EE0207CB0
:1034A00020B129462046FFF7F7FEF8BDD4F8B40254
:1034B000016B68468847014607204870BDF8000048
:1034C00048B1EA8852B1824200D90246ADF80020E4
:1034D0002046FFF706FFE8880028E6D12046FFF7E0
:1034E0000DFFF8BD70B5002300281ED0044600254E
:1034F00002E06D1CEDB2641C2678002EF9D1022486
:1035000004EB450414801278CA545B1C0322CA548D
:1035100000245B1C06E0CA545B1CDAB28C54521CBB
:10352000D3B2401C0278002AF5D170BD01004FF0E3
:10353000000004D0012901D0022901D002207047E7
:103540000120704710B580B1D0F8B43213B1002318
:10355000C0F8B43209B1C0F8B012012180F89C1251
:10356000027000F0BFF8002010BD022010BD10B5A1
:10357000D0F8C002FDF7E4FEBDE81040FFF7D6BF6B
:1035800010B5D0F8C002FDF7B5FEBDE81040FFF75A
:10359000CDBF2DE9F0411746044651B1D4F8B4022D
:1035A00042691AB194F89C02032851D00220BDE868
:1035B000F081D4F89432002504F11400022B03D0DA
:1035C000042B3AD0C3B33CE0D0E903639E4207D951
:1035D000F11AC1608AB239462046FFF755FE12E063
:1035E0008068B0FBF3F103FB110199B9984211D344
:1035F000D4F8981288420DD2002211462046FFF7D7
:1036000043FEC4F8985200231A461946204600F09B
:10361000C5F816E0D4F8B402C16829B194F89C0248
:10362000032801D1204688478021204600F036F942
:103630002046FFF74BFE04E0FFE78021204600F024
:103640002DF994F8A002012804D184F8A05201E0D9
:10365000204690470020AAE770B51546044649B1B8
:10366000D4F8B40282691AB194F89C02032830D0CD
:10367000022070BDD4F8941204F5AA70032902D078
:1036800005291ED027E0D0E903218A420BD9531A1D
:10369000C3600846834200D303469AB229462046B7
:1036A000FFF7EAFD17E0D4F8B402016929B194F8F4
:1036B0009C02032801D1204688472046FFF71EFEC2
:1036C00009E000200146C4F89402204600F0E6F824
:1036D00001E020469047002070BDD0F8C002FDF701
:1036E000E0BF000010B504461C481D49C0F8E84280
:1036F000C4F8C002016008214160022181600021FC
:103700008161C1610162FEF71BF908B1FDF7CEF9D5
:103710000022D4F8C0021823114604F53074FDF7D6
:10372000B7FD5823002280212068FDF7B1FDC0239A
:10373000002281212068FDF7ABFD4FF48873002241
:1037400001212068FDF7A4FD4FF48073002282213F
:103750002068FDF79DFD002010BD000040080020FE
:10376000005C00400A0601F07F01D0F8C00201EBC6
:10377000810100EBC10002D590F82A00704790F853
:103780006A01704710B51C461346D0F8C0022246A5
:10379000FDF790FFBDE81040FFF7C8BE10B5D0F8A8
:1037A000C002FDF7B7FFBDE81040FFF7BFBE70B520
:1037B0000022044640231146FFF7E4FF402601257E
:1037C000C4F864613346002280212046C4F8585171
:1037D000FFF7D8FF6662A56184F89C520020C4F808
:1037E00094026060C4F8A402D4F8B80228B1D4F8F6
:1037F000B4020021426820469047002070BD90F836
:103800009C12042903D190F89D1280F89C1200208C
:10381000704710B590F89C12032904D1D0F8B41267
:10382000C96901B18847002010BD017400207047AC
:1038300010B5D0F8C002FEF72AF9BDE81040FFF736
:1038400075BE70B5044600F52A70054600F04AF8CA
:103850000120C4F89402B4F8AE02C4F8980294F8B7
:10386000A80210F01F010AD001290DD0022910D0A2
:1038700000F08001204600F011F8002070BD2946BC
:10388000204600F09EF8F8E72946204600F0CAF9E5
:10389000F3E72946204600F01DF9EEE710B5D0F811
:1038A000C002FDF750FFBDE81040FFF73FBE10B566
:1038B000D0F8C002FEF706F9BDE81040FFF736BEAB
:1038C00090F89C1280F89D12042180F89C12002030
:1038D000704710B5D0F8C002FDF76EFFBDE810408C
:1038E000FFF724BE0A7802704A7842708A78CB7853
:1038F00002EB032242800A794B7902EB0322828099
:103900008A79C97902EB0121C18070470246002003
:1039100011B1C2F8B41270470220704710B5D0F848
:10392000B42202241AB11268904700B9002420463C
:1039300010BD000070B50E461E4D897804462970F2
:10394000012931D894F89C0202280BD003280FD00B
:1039500031462046FFF7A0FC29782046BDE870409C
:10396000FFF783BCD9B10320616084F89C0209E0B1
:1039700071B16068884212D0C1B22046FFF775FC71
:10398000297861602046FFF7C9FF02280CD006E0C5
:10399000022084F89C0220466160FFF766FC204606
:1039A000BDE87040FFF7AABC31462046BDE8704034
:1039B000FFF772BC9800002010B5FFF778FF0020D9
:1039C00010BD2DE9F0410A78002612F0600208D0FF
:1039D000202A01D0402A70D1D0F8B42292689047B2
:1039E0006DE04B78002201250A2B66D2DFE803F058
:1039F000405D6557650805652C29FFF7FFFC5EE013
:103A000004468888D8B9C888C8B94888802816D29A
:103A100000F07F0794F89C02032810D084F89E726F
:103A200039462046FFF704FF2046FFF767FC1FB129
:103A3000022084F89C0242E084F89C523FE0204639
:103A40003BE0FFF777FF3AE0CB88012B35D190F8C8
:103A50009C32012B04D0022B02D0032B2DD104E089
:103A60008260012200F1080116E00122011D13E02D
:103A700090F89C22012A03D0022A01D0032A1CD1EB
:103A8000CA88022A19D1C560D0F8A41209B103214D
:103A9000C160022200F10C01FFF723FC0FE049880E
:103AA00001290CD1C0F8A45211E090F89C32012BEE
:103AB00008D0022B06D0032B04D0FFF7EDFB3046D5
:103AC000BDE8F08149880129F9D1C0F8A422FFF7A7
:103AD00015FCF4E72DE9F0410A460446107800276A
:103AE000097910F060030AD0202B01D0402B50D16F
:103AF000D4F8B40211468368204698478FE0C0F39B
:103B00004110012806D05078D0B301282AD00328CC
:103B10003FD107E0D4F8B402114683682046BDE8DF
:103B2000F041184794F89C02022802D0032872D171
:103B30000AE071B380296ED02046FFF7AFFE8021E6
:103B40002046FFF7ABFE6AE0508838B931B18029D2
:103B500004D0D08810B92046FFF7A0FE2046FFF71A
:103B6000CDFB5CE094F89C020228E2D0032852D1FD
:103B7000508898BB4806F1D02046FFF7F8FCEDE7E7
:103B8000FFE794F89C020026022803D0032842D1C4
:103B900012E040E009B180293DD1080601F07F0024
:103BA00000EB800004EB800101D5143101E001F548
:103BB000AA7102220E602AE0080601F00F0000EB55
:103BC000800004EB80000AD5806920B301F07F00FB
:103BD00000EB800004EB800514350BE01FE0D0F80B
:103BE0005801C0B101F07F0000EB800004EB8005BC
:103BF00005F5AA7541B1802906D02046FFF7B2FD30
:103C000010B10120286000E02E60022229462046E3
:103C1000FFF767FB03E011462046FFF73DFB384600
:103C2000BDE8F08170B5054608780C4610F06000DC
:103C300003D0202801D0402816D195F89C020128F5
:103C400003D0022801D003280ED1207901280BD8F7
:103C5000D5F8B402826828469047E188014306D12E
:103C60002846FFF74BFB02E02846FFF715FB002034
:103C700070BD704700487047200600202DE9F047CE
:103C80000C78002630F8243048F68F121340CA789A
:103C9000002A7DD0012A7CD0022A02D0032A7FD0BC
:103CA000012648F28002134320F824300D7830F8C2
:103CB000254048F68F731C402C43144320F82540C0
:103CC0000D7B48F2C00C48F6BF744CF280074BF6EF
:103CD0008F79EDB391F80080C24630F8285048F251
:103CE00080181D4045EA080520F82A50B0F85050C9
:103CF00091F80080054405EB0815B1F8088028F01C
:103D00000108A5F80084B0F8505091F800800544EF
:103D100005EB0815B1F80A8028F00108A5F8088419
:103D20004D78002D0D7830F825804FEA48487DD039
:103D3000B8F1000F07DA30F8258008EA030848EAEE
:103D4000070820F825800F7830F827506D0600E02E
:103D50002CE006D530F827501D4045EA0C0520F828
:103D60002750CB780D78012B30F8253003EA040377
:103D700001D083F02003134320F825300B7830F86E
:103D8000231001EA0901114320F82310304602E014
:103D900003E008E004E0BDE8F08743F4007380E747
:103DA00043F4C0637DE743F480637AE74D782DB335
:103DB000B0F850500F78054405EB0715CF8827F071
:103DC0000107A5F800740F7830F827506D0606D566
:103DD00030F827501D4045EA0C0520F82750CB78D5
:103DE000012B06D00B7830F82310214081F0200100
:103DF000C9E70B7830F823102140C4E7B0F85040F1
:103E00000D78044404EB0514CD8825F00105A4F8D1
:103E10000854B0F850400D78044404EB05140D69C3
:103E200004F20C4475B13E2D14D800E030E04FEAA6
:103E3000550CED0701D00CF1010C4FF6FF7505EAAA
:103E40008C2511E0258825F4F8452580258845F442
:103E5000004509E04FEA551CED0601D1ACF1010C1B
:103E60004FF4004545EA8C2525800D7830F8254033
:103E7000640405D530F825401C403C4320F825401B
:103E80000B7830F8231001EA090181F440517AE7F8
:103E9000B8F1000F07DA30F8258008EA030848EA8D
:103EA000070820F825800F7830F827506D0606D5D2
:103EB00030F827501D4045EA0C0520F827500D78B2
:103EC00030F8253003EA090383F44053134320F804
:103ED00025308EE7002070472DE9F04391F80C80E3
:103EE0004F780A7848F6BF7C4BF68F7948F280030A
:103EF00048F2C0054CF2800648F68F74B8F1000F06
:103F000028D0002F30F822704FEA474748D0002FC2
:103F100005DA30F822702740374320F822700A78FB
:103F200030F822707F0605D530F8227027402F43E5
:103F300020F822700D7830F825202240324320F8F6
:103F400025200C7830F8242002EA0C021A4320F8CD
:103F500024201AE07FB130F82260760605D530F8CB
:103F6000226026402E4320F822600A7830F8221082
:103F700001EA0C010EE030F822506D0405D530F84E
:103F800022502540354320F822500A7830F822107C
:103F900001EA0901194320F822100020BDE8F0834E
:103FA000002F05DA30F822702740374320F82270BE
:103FB0000A7830F82260760605D530F8226026406F
:103FC0002E4320F822600E7830F8262022402A4323
:103FD00020F826200C7830F8242002EA09021A433F
:103FE00020F82420C1E700207047002070470121FD
:103FF00020F8401F0021018081800182084670471F
:1040000030F8401F21F43F4101800020704700201C
:10401000704730B50A7BB2BB4A7848F68F7548F2D4
:104020008004C2B10B7830F82320520607D530F84F
:1040300023202A4048F2C0052A4320F82320CA78CA
:10404000012A20D00A7830F8221048F6BF731940B0
:1040500081F0200114E00A7830F822305B0407D5A3
:1040600030F822302B404CF280052B4320F82230D0
:104070000A7830F822104BF68F73194081F44051C2
:10408000214320F82210002030BD10B54A7809786D
:10409000002A48F2800330F8212005D048F6BF748A
:1040A000224082F0100204E04BF68F74224082F42A
:1040B00080521A4320F82120002010BD2DE9F04F36
:1040C0000D464A78097B04464FF0000948F68F7A7E
:1040D00048F2800B4FF6FF774FF40048012A09D0D1
:1040E00000297DD0E87802287BD001287AD00120F1
:1040F000BDE8F08FAE692869864200D9064681B1D5
:10410000E97802291CD0287834F820104906B4F840
:104110005010214401EB001070D5A0F80C646A899E
:1041200028E1B3B2EA882046696900F05FFAB4F882
:1041300050002978204400EB0110A0F8046435E118
:10414000296A814276D9297834F8210048F2801210
:1041500000EA0A00104324F82100286A801B286224
:10416000287834F820104906697876D511B10129EC
:1041700021D027E0B4F85010214401EB001000F2E8
:104180000C404EB13E2E0FD87108F20700D0491CEA
:1041900007EA8121018015E0018821F4F8410180BE
:1041A000018841F40041F5E77109F20600D1491E8A
:1041B00048EA8121EEE7B4F85020111901EB001014
:1041C000A0F80C646A89B3B22046696900F00EFA5F
:1041D0006869304468612969286A884206D902E022
:1041E000EDE00DE178E1801B286202E00646C5F8AB
:1041F0002090687818B1012824D02BE0B7E0B4F8FB
:1042000050002978204400EB011000F204404EB128
:104210003E2E10D87108F20700D0491C07EA812110
:10422000018017E0018821F4F8410180018841F400
:104230000041F5E786E07109F20600D1491E48EA1F
:104240008121EDE7B4F850002978204400EB0110FB
:10425000A0F804642A896FE0FFE711B1012921D099
:1042600027E0B4F85010214401EB001000F20440A4
:104270004EB13E2E0FD87108F20700D0491C07EA54
:104280008121018015E0018821F4F8410180018835
:1042900041F40041F5E77109F20600D1491E48EAF0
:1042A0008121EEE7B4F85010214401EB0010A0F892
:1042B00004642A89B3B22046696900F097F96869F5
:1042C000304468612969286A884202D9801B2862C3
:1042D00002E00646C5F82090687810B1012822D087
:1042E00029E0B4F850002978204400EB011000F2D6
:1042F0000C404EB13E2E0FD87108F20700D0491C79
:1043000007EA8121018016E0018821F4F84101804B
:10431000018841F40041F5E77109F20600D1491E18
:1043200048EA8121EEE7B4F850100819297800EB2B
:104330000110A0F80C646A89B3B22046696900F0E4
:1043400055F933E02A7834F8220048F68F63184094
:1043500040EA0B0024F82200B4F850002A782044E8
:1043600000EB02108BB2A0F804342A89E5E7A0F82C
:1043700004642A89B3B22046696900F037F9687885
:1043800010B1012808D011E0297834F8210048F252
:10439000C00200EA0A0006E0297834F821004CF255
:1043A000800200EA0A00104324F82100297834F83A
:1043B000210048F6BF72104080F03000DFE0A969AC
:1043C0002869814202D9091AA961B6E00846C5F8F0
:1043D0001890B2E0088820F4F8400880088840F47B
:1043E00000400BE03E2876D84208C00700D0521C9F
:1043F00007EA822002E000BF48EA82200880B6E097
:1044000092B9B4F850002978204400EB01102969D2
:1044100000F2044069B13E2913D84A08C90700D008
:10442000521C07EA82210180687888B1012832D0C5
:104430003AE0018821F4F8410180018841F400410B
:10444000F1E74A09C90600D1521E48EA8221EAE78B
:10445000B4F850002978204400EB0110296900F2DB
:104460000C4049B13E290FD84A08C90700D0521C58
:1044700007EA8221018017E0018821F4F8410180D8
:10448000018841F40041F5E74A09C90600D1521EEE
:1044900048EA8221EEE7B4F850100819297800EBB9
:1044A0000110298AA0F80C14E869B0B3297834F80F
:1044B0002100420401D5420603D444F240021042D6
:1044C00055D134F8210048F2C00200EA0A00104336
:1044D00024F821004BE03CE0A9692869814202D917
:1044E000091AA96102E00846C5F818908AB9B4F81B
:1044F00050102A78214401EB021101F2044168B105
:104500003E2813D84208C30700D0521C07EA822273
:104510000A80697889B1012921D028E00A8822F42B
:10452000F8420A800A8842F40042F1E74209C306D1
:1045300000D1521E48EA8222EAE7B4F850102A78E5
:10454000214401EB021101F20C4100287FF44AAF33
:1045500040E74209C0067FF44FAF521E4CE7B4F863
:10456000502011192A7801EB0211A1F80C042978C6
:1045700034F821004BF68F72104080F4405040EA2E
:104580000B0024F821000020B2E50021A0F844101F
:104590004FF43F41A0F84010002070470148FDF75C
:1045A00025B9000040080020B0F844007047000022
:1045B00010B500EB42005C0800F5806009D000BF38
:1045C00030F8042B01F8012B120A01F8012B641EAC
:1045D000F6D1DA0701D00088087010BD00207047BE
:1045E00011B98021A0F84C100020704710B55B1C59
:1045F00000EB42005B0800F5806009D011F8012B48
:1046000011F8014B42EA042220F8042B5B1EF5D17D
:1046100010BDFEE70A4601464FF0FF330148FDF7A3
:1046200001BE0000C40200200A4601464FF0FF33DD
:104630000148FDF7A4BE0000C4020020F8B5144CE8
:104640000546E068804760698047616AC5F30740B6
:10465000C5F3072699B1A26A8AB18DF800008DF8DA
:1046600001608DF80250032168469047E069804759
:104670000546A0698047206980472846F8BD216A21
:104680008847216A30468847216AE8B28847EDE7C3
:10469000C40100202DE9F8431A4C05461746E0688E
:1046A0008846804760698047616AC5F30740C5F363
:1046B0000726A1B1A26A92B18DF800008DF80160C1
:1046C0008DF80250032168469047626A3946404699
:1046D0009047A069804720698047BDE8F883216A38
:1046E0008847216A30468847216AE8B28847002512
:1046F00005E0E069804708F805006D1CADB2BD42D9
:10470000F7D3E6E7C4010020F8B5164C05460E467F
:10471000E068804760698047A26A45F004058AB175
:10472000280C8DF80000280A8DF801008DF8025041
:104730008DF80360042168469047A069804720698E
:104740008047F8BD216AC5F307408847216AC5F351
:1047500007208847216AE8B28847216A304688479F
:10476000EBE70000C4010020F8B51A4C05461646D8
:10477000E0680F46804760698047A26A45F00405FB
:104780009AB1280C8DF80000280A8DF801008DF8E8
:104790000250032168469047A26A31463846904746
:1047A000A069804720698047F8BD216AC5F30740AA
:1047B0008847216AC5F307208847216AE8B28847FD
:1047C000002504E0216A785D88476D1CADB2B542D2
:1047D000F8D3E5E7C40100207CB50C001D46164661
:1047E000014601D0601E00E00020CDE90010064B1C
:1047F0006A462946304600F0EBF8002C02D0009AB9
:10480000002111707CBD0000D75000080907090E77
:10481000002804DB00F1E02080F80014704700F06D
:104820000F0000F1E02080F8141D704702E008C876
:10483000121F08C1002AFAD170477047002001E01A
:1048400001C1121F002AFBD1704700002DE9FF5F54
:1048500082B00021DDE90430020DDDF840B00343F1
:1048600018D044F61050A2F2FF32424315141198AA
:1048700001281FD0A5EB0B00401C5FEA000A4FF097
:1048800000064E4FDFF83891B046504615D5CAF1B4
:10489000000413E0119801244AA3012801D16FEA12
:1048A0000B010298119AC0E90031C0E9024206B03A
:1048B000BDE8F09FCBF10000DFE704460021404A4D
:1048C000491842EB0450CDE9001012E0E00707D090
:1048D00032463B4640464946FBF771FD80468946D5
:1048E00032463B4610461946FBF769FD06460F4621
:1048F0006410002CEAD1DDE90401DDE90023BAF1FE
:10490000000F06DAFBF75BFD42464B46FBF757FD0F
:1049100005E0FBF7C6FD42464B46FBF7C2FD0446E9
:104920000E460022284BFBF743FE03D84FF0FF3022
:10493000014607E00022254B20463146FBF798FC54
:10494000FBF71EFE102409E0002C0ADB0A220023DC
:10495000FBF75DFC039B30321A55641E50EA0102DE
:10496000F2D1641C039AC4F111031444119A012A70
:1049700003D0012208430DD10AE0084304D00020EF
:104980004FF0110B119072E7A3EB0B056D1E0DE0BC
:104990005B4504DD4FF0000205F1010504E003DA98
:1049A0004FF00002A5F10105002AECD00298119900
:1049B000C0E90231C0E9004579E700000000144079
:1049C0000000F03F300000000000F0430000E03F36
:1049D0002DE9FF4F95B09A46884606460025EEE140
:1049E000252877D100242746F94A0121039400E0C5
:1049F000044316F8013F203B01FA03F01042F7D1BF
:104A000030782A2811D06FF02F033078A0F13002CF
:104A1000092A16D8039A44F0020402EB820203EB3F
:104A200042021044761C0390EFE758F8042B0392DF
:104A3000002A03DA504244F40054039044F0020484
:104A4000761C30782E2816D116F8010F44F0040495
:104A50002A280DD06FF02F023078A0F13003092BF7
:104A600009D807EB870302EB4303C718761CF3E76B
:104A700058F8047B761C30786C280FD006DC4C2864
:104A800017D068280DD06A2814D104E0742810D0FB
:104A90007A280FD10DE044F400140AE044F48014A5
:104AA00001E044F440147278824202D104F580148B
:104AB000761C761C307866280BD013DC582877D00B
:104AC00009DC002875D04528F6D04628F4D04728C0
:104AD0001AD193E118E0632835D0642879D065288D
:104AE00012D18BE1702873D008DC6728F1D06928D7
:104AF0006FD06E280DD06F2806D1ACE073282CD073
:104B0000752874D0782853D05246179990476D1C59
:104B100054E1C4F30250022809D003280DD0D8F87C
:104B2000001004280DD00D6008F1040846E1D8F803
:104B30000010EA17C1E90052F6E7D8F800100D801E
:104B4000F2E70D70F0E718F8041B8DF80010002054
:104B50008DF80100EB46012003E058F804BB4FF04C
:104B6000FF3061074FF0000102D40DE009F10101AF
:104B70008946B9420FDA8145F8DB1BF80910002994
:104B8000F4D108E009F1010189468142FADB1BF802
:104B900009100029F6D103985346A0EB09072146D6
:104BA0003846179A00F080FA284400EB090507E020
:104BB00044E008E10DE01BF8010B524617999047BD
:104BC000B9F10109F7D2534621463846179AF2E067
:104BD00039E00A21C4F302524FF0000B0091022A7F
:104BE00006D058F8040BC117032A09D00AE023E0C5
:104BF00008F1070020F00702F2E80201904605E004
:104C000000B2C117042A01D140B2C117002906DA47
:104C10000A460021404261EB02012D2202E02205FA
:104C200004D52B228DF80420012203E0E20701D0F5
:104C30002022F7E7914657E00A2100E010214FF0CB
:104C4000000B00910BE010214FF0000B44F0040426
:104C50000827009103E008204FF0000B0090C4F3F8
:104C60000252022A05D058F8040B0021032A08D06A
:104C700008E008F1070020F00702F2E80201904680
:104C800003E080B2042A00D1C0B24FF0000922072D
:104C90002AD53278702A07D0DDF800C08CF0100CCD
:104CA0005CEA0B0C05D00EE040228DF804200122B6
:104CB00008E050EA010306D030238DF804308DF867
:104CC000052002229146009B83F0080353EA0B0360
:104CD0000AD150EA010201D1620705D530228DF8D0
:104CE00004204FF001097F1E3278582A04D039A2DF
:104CF0000C920CAA02920BE03BA2F9E75B46009AE9
:104D0000FBF785FA0C9B9B5C029A521E0292137071
:104D100050EA0102F2D1029804A9081A00F1200B0E
:104D2000600702D524F4803400E001275F4502DDEE
:104D3000A7EB0B0000E0002000EB0B0100900398B4
:104D40004944401A0390E00306D453462146179A7B
:104D5000039800F0A9F90544002706E001A852468F
:104D6000C05D179990476D1C7F1C4F45F6DBE00333
:104D70000CD553462146179A039800F095F905443F
:104D800004E030205246179990476D1C0099481E48
:104D900000900029F5DC08E002980299524600785C
:104DA000491C0291179990476D1CBBF10001ABF1B2
:104DB000010BF1DC5BE100F065F90544761C30780D
:104DC00000287FF40DAE19B02846BDE8F08F000032
:104DD00009280100303132333435363738396162D1
:104DE0006364656600000000303132333435363795
:104DF000383941424344454600000000600700D472
:104E0000062708F1070020F00700F0E8022380469B
:104E100003F0004C5FEA0C0001D097A009E02005E8
:104E200001D596A005E0E00701D095A001E0AFF222
:104E30004C001390307823F0004365280CD006DC3A
:104E4000452809D046281DD047287FD13BE0662859
:104E500018D067287AD136E00021112F01DB11200C
:104E600000E0781CCDE9000104A90CA8FFF7EEFCD6
:104E7000DDE90D010C9A4FF0000B07F101091092CA
:104E800000914EE04FF000400097CDE9011004A9D9
:104E90000CA8FFF7DBFCDDE90D020C9B0F994FF02E
:104EA000000B91461093009211B9791C00EB010997
:104EB000B7EB090003D4C0F1FF3B07F10109A9EBEF
:104EC0000700019042E0012F00DA01270021112F95
:104ED00001DD112000E03846CDE9000104A90CA84D
:104EE000FFF7B4FCDDE90D010C9A00914FF0000BC7
:104EF000B946109221070FD4009A4A4503DA914629
:104F000001E0A9F10109B9F1010F05DD109AA9F13C
:104F10000101515C3029F4D0B84202DA10F1040FDB
:104F200003DA0121CDE9011010E0002803DC8344FD
:104F3000A9EB000102E0411C494500DD8946A0EBD8
:104F40000B00401C01904FF000400290200705D458
:104F50000198484502DB4FF0FF30019000208DF8AA
:104F60004B0002980DF14B07B0F1004F25D0022005
:104F70000C902B200D90029800280CDA40420290F1
:104F80002D200D9007E00A210298FBF72AF9303115
:104F9000029007F8011D0C99481E0C900029F2DCC4
:104FA00002980028EFD1791E0D980870307800F033
:104FB000200040F0450007F8020D11A8C01BC01DDD
:104FC00002901398007800B1012000EB09010198CC
:104FD00001EBE071029801440398401A401E0390CF
:104FE000E00306D453462146179A039800F05CF874
:104FF00005441398007818B15246179990476D1CD4
:10500000E00323D553462146179A039800F04CF845
:1050100005441BE0BBF1000F07DB0098584504DD99
:105020001098179910F80B0001E01799302052469C
:10503000904701980BF1010B401E05F1010501900D
:1050400004D12E205246179990476D1CB9F10001EA
:10505000A9F10109DEDC05E017F8010B52461799AA
:1050600090476D1C0299481E02900029F4DC5346BB
:105070002146179A03989EE62D0000002B000000A1
:10508000200000002DE9F041044600251E46174689
:10509000880404D405E039462020B0476D1C641E06
:1050A000F9D52846BDE8F0812DE9F04104460025F8
:1050B0001E469046C80301D5302700E0202788040B
:1050C00004D505E041463846B0476D1C641EF9D54D
:1050D0002846BDE8F0814A68002A06D00A68531CB9
:1050E0000B6010704868401E48607047F8B54FF478
:1050F000D8563046FFF7A2FA054603213046FFF79F
:1051000003FB0E4B41F28830DC1F009011220CA1F2
:10511000A07801F02DFB074629463046FFF7F4FA48
:105120000D3708D001F070F8E069E169091A022929
:10513000FBD30020F8BD0120F8BD0000F7010020DE
:10514000434845434B5F49505F434F4E464C4943AC
:105150005400000070B51A4C0125204694F9011046
:10516000002690F90000022917DAD4E907219142BC
:1051700023D2012804D0022805D0042805D102E05A
:1051800001F0C2F801E001F0ABF9E661E0690A3034
:1051900020626078401C60700FE0012804D0022873
:1051A00005D0042807D102E02670002503E001F0B5
:1051B000ABF80120207000F08FFF284670BD000082
:1051C000F00100202DE9F041494C48486060FBF7B0
:1051D00001F82080454947A0FDF765FE46A0FDF790
:1051E00062FE002342F688220121022001F080FBAA
:1051F000C5B24FF4FA773846FBF794FD022D08D07C
:10520000294645A0FDF74FFE3846BDE8F041FBF7C3
:1052100089BD4DA0FDF747FE344941F28832091F90
:10522000022000F093F9C6B23D463846FBF77AFDFE
:10523000012E02D031464AA051E056A0FDF733FEC0
:1052400022880220616800F051FF81B2218056A0BF
:10525000FDF729FE2088002845D05DA0FDF723FE3C
:105260004FF4006632466349022000F063FD20805F
:105270002846FBF757FD21885FA0FDF714FE208824
:10528000002830D02846FBF74DFD2088B04201D3DE
:10529000701E208057492288002088542846FBF73A
:1052A00041FD5FA0FDF7FFFD5248FDF7FCFD63A047
:1052B000FDF7F9FD67A0FDF7F6FD022000F018FAF2
:1052C000C1B2012901D06AA009E073A0FDF7EBFD8E
:1052D000022000F001F9C1B2012904D073A0BDE899
:1052E000F041FDF7E0BDBDE8F0810000A66C0008CC
:1052F0006C000020257300000D0A20436C69656E68
:10530000746520696E6963696F7520756D612072BF
:1053100065717565737400000D200A204552524F67
:1053200020414F20434F4E46494755524152204F4E
:1053300020534F434B45542120534F434B5F45521D
:10534000523A2025750D0A000A434F4E45435441F9
:105350004E444F20414F205345525649444F52002E
:105360000A4552524F20414F20434F4E454354412E
:105370005220434F4D204F205345525649444F52DF
:105380002120534F434B5F4552523A2025750D0A59
:10539000000000000A454E5649414E444F205041FE
:1053A000434F5445000000000A54616D616E686F00
:1053B000206465206461646F7320656E7669616442
:1053C0006F732073656E743A2025750D0A00000016
:1053D0000A5245434542454E444F204120524553D1
:1053E000504F53544120444F205345525649444F47
:1053F00052000000FC1400200A54616D616E686F59
:10540000206465206461646F7320726563656269FE
:10541000646F732020726563763A2025750D0A004B
:105420000A23232320524553504F4E534520494EC3
:105430004943494F202323230D0A00000A23232335
:1054400020524553504F4E53452046494D2023236B
:10545000230D0A000A444553434F4E454354414EE1
:10546000444F20444F205345525649444F52210047
:105470000A4552524F20414F20444553434F4E4519
:10548000435441522120534F434B5F4552523A20DF
:1054900025750D0A000000000A46454348414E4468
:1054A0004F204F20534F434B455400000A45525262
:1054B0004F20414F20464543484152204F20534FF3
:1054C000434B45542120534F434B5F4552523A20A2
:1054D00025750D0A0000000070B50446082802D9A1
:1054E0004FF0FF3070BD4FF4847000EB4410054660
:1054F0001021FFF709F92846FFF7A0F80028FAD194
:105500004FF4027000EB44101F21FFF7FDF80D4926
:105510000120A0404A8882434A808A8882438A8048
:105520000949002021F814000649891D08554FF447
:10553000427000EB44142046FFF780F80028FAD1AF
:10554000012070BDAC010020FC2400202DE9F041B9
:1055500017460E460446082803D94FF0FF30BDE831
:10556000F08160014FF001080830FFF767F800F0A4
:105570000F00012802D06FF00400F0E74FF44270F2
:1055800000EB44100546FFF759F8132802D06FF0DE
:105590000200E4E73078717801EB0020B17801EB8C
:1055A0000020F17801EB0020411C2CD058B36FB3E0
:1055B00040F6084000EB441004223146FFF7D4F8CF
:1055C00041F20800390A00EB4410FFF79DF841F260
:1055D0000810F9B200EB4410FFF796F84FF484700E
:1055E00000EB441006460421FFF78EF83046FFF723
:1055F00025F80028FAD1164908FA04F0498808422B
:105600001AD00020ABE76FF00B00A8E76FF00A009C
:10561000A5E72046FFF712F8000706D52046082127
:10562000FFF772F86FF00C0099E72846FFF706F8CD
:1056300030B96FF0030092E74FF4027000EB4414AE
:105640002846FEF7FBFF1728E3D1012087E700007B
:10565000AC010020012210210148FBF779BC0000B9
:1056600000080140002210210148FBF771BC000036
:105670000008014010B5042209494FF47060FFF79B
:1056800073F80749042208314FF4A060FFF76CF863
:1056900003490422091DBDE810409001FFF764B8DA
:1056A000F701002010B580210020FFF72DF8002021
:1056B000FEF7C4FFBDE81040062202494FF4106017
:1056C000FFF752B83002002010B580210020FFF70C
:1056D0001BF80020FEF7B2FFFFF7CCFFBDE810403B
:1056E000062202494FF41060FFF73EB83002002056
:1056F00070B50446082802D94FF0FF3070BD600134
:1057000001250830FEF79AFF00F00F00012801D0B4
:10571000A81F70BD4FF4847000EB441006460821AA
:10572000FEF7F2FF3046FEF789FF0028FAD1124853
:10573000A5408188A9438180408805420CD0002083
:1057400070BD3046FEF77AFF00070DD52046FFF703
:10575000C3FE6FF00C0070BD4FF4027000EB4416F6
:105760004FF4427000EB44152846FEF767FF00280F
:10577000E7D1012070BD0000AC0100200148806924
:1057800070470000F001002004490A7802704A784E
:1057900042708A788270C978C17070470302002015
:1057A00004490A7802704A7842708A788270C9780F
:1057B000C1707047FB01002004490A7802704A78E2
:1057C00042708A788270C978C1707047F7010020F2
:1057D00004490A7802704A7842708A788270C978DF
:1057E000C1707047FF0100202DE9F04142F20861CD
:1057F00001EB401542F20871002601EB40142846E7
:10580000FEF71CFF07462046FEF718FF00EB0720B7
:1058100007043F0C09D02846FEF710FF0646204635
:10582000FEF70CFF00EB062086B2BE42E7D1304601
:10583000BDE8F0812DE9F04142F2080101EB40158D
:1058400042F20811002601EB40142846FEF7F6FE4E
:1058500007462046FEF7F2FE00EB072007043F0C48
:1058600009D02846FEF7EAFE06462046FEF7E6FE89
:1058700000EB062086B2BE42E7D13046BDE8F0819B
:1058800030B597B0FBF7E2F83F49404800F0E6FB3F
:105890003F49404800F0F4FB3F49404800F006FC17
:1058A0003FA30DAC0FCB84E80F000DA9084601F013
:1058B00050F918223E4911A8FAF768FC062211A9EE
:1058C0004FF41060FEF750FF3A490020FAF7DEFF70
:1058D0003A49394A084600F0A9FB42F21074384DA3
:1058E00006E0214637A0FDF7DEFAFBF71BF8641E41
:1058F000287808B9002CF4D12878E0B30DF14A00DB
:10590000FFF75AFF0DF15200FFF74AFF0DF14E006D
:10591000FFF75EFF2A48401CFFF736FF284809AC16
:10592000401CC37882784178007884E80F009DF8A5
:105930004E0005AC9DF851309DF850209DF84F1059
:1059400084E80F009DF8520001AC9DF855309DF899
:1059500054209DF8531084E80F009DF84D000090EE
:105960009DF84C309DF84B209DF84A101D48FDF7DE
:105970009AFA11A800E003E001F028F917B030BD51
:1059800019A0FDF790FAF9E755560008655600088A
:10599000296A00080D6A0008294600081546000813
:1059A00002020202020202020202020202020202D7
:1059B000246D0008FC1C0020690800081908000874
:1059C000740000200D2054656E7461746976612046
:1059D000646520636F6E6578616F20202564203ACE
:1059E000280D0A006C6D00080D0A4950204E414FE9
:1059F0002041545249425549444F21280D0A000084
:105A0000FBF7B6FBFDF70FFAFCF71EFFFCF798FF5C
:105A1000FCF7B8FFFCF7F2FE1F481E4900240160A6
:105A20001E49C0E901144FF48041C0E903414461BB
:105A30008461C4610462FBF797FA08B172B6FEE7AD
:105A400015481749AC3001604FF41651C0E90114F4
:105A50000C21C460C0E904418461C461FCF747FEC5
:105A600008B172B6FEE7FFF70BFF0E48FFF7AAFB7F
:105A70000D4D4FF480544FF4FA7640F6C41721468A
:105A80002846FBF75DFA3046FBF74CF93846FBF742
:105A900049F9F4E70054004070020020A08601009C
:105AA0000048004000000020001001401CB5062204
:105AB00069464FF41060FEF7EDFD2F4A0120D16BCF
:105AC00008704870062088700020C870936B1B0E09
:105AD0000B71936B1B0C4B71138F1B0A8B7192F81C
